{
  "contractName": "Erc20Library",
  "abi": [
    {
      "constant": true,
      "inputs": [
        {
          "name": "_storageContract",
          "type": "address"
        },
        {
          "name": "_address",
          "type": "address"
        }
      ],
      "name": "getBalance",
      "outputs": [
        {
          "name": "",
          "type": "uint256"
        }
      ],
      "payable": false,
      "stateMutability": "view",
      "type": "function"
    },
    {
      "constant": false,
      "inputs": [
        {
          "name": "_storageContract",
          "type": "address"
        },
        {
          "name": "_from",
          "type": "address"
        },
        {
          "name": "_to",
          "type": "address"
        },
        {
          "name": "_value",
          "type": "uint256"
        }
      ],
      "name": "transferFrom",
      "outputs": [],
      "payable": false,
      "stateMutability": "nonpayable",
      "type": "function"
    },
    {
      "constant": false,
      "inputs": [
        {
          "name": "_storageContract",
          "type": "address"
        },
        {
          "name": "_to",
          "type": "address"
        },
        {
          "name": "_value",
          "type": "uint256"
        }
      ],
      "name": "transfer",
      "outputs": [],
      "payable": false,
      "stateMutability": "nonpayable",
      "type": "function"
    },
    {
      "constant": false,
      "inputs": [
        {
          "name": "_storageContract",
          "type": "address"
        },
        {
          "name": "_to",
          "type": "address"
        },
        {
          "name": "_value",
          "type": "uint256"
        }
      ],
      "name": "mintToken",
      "outputs": [],
      "payable": false,
      "stateMutability": "nonpayable",
      "type": "function"
    },
    {
      "constant": false,
      "inputs": [
        {
          "name": "_storageContract",
          "type": "address"
        },
        {
          "name": "_to",
          "type": "address"
        },
        {
          "name": "freeze",
          "type": "bool"
        }
      ],
      "name": "setFrozenAccount",
      "outputs": [],
      "payable": false,
      "stateMutability": "nonpayable",
      "type": "function"
    },
    {
      "constant": true,
      "inputs": [
        {
          "name": "_storageContract",
          "type": "address"
        },
        {
          "name": "_to",
          "type": "address"
        }
      ],
      "name": "getFrozenAccount",
      "outputs": [
        {
          "name": "",
          "type": "bool"
        }
      ],
      "payable": false,
      "stateMutability": "view",
      "type": "function"
    },
    {
      "constant": false,
      "inputs": [
        {
          "name": "_storageContract",
          "type": "address"
        },
        {
          "name": "_from",
          "type": "address"
        },
        {
          "name": "_value",
          "type": "uint256"
        }
      ],
      "name": "burnFrom",
      "outputs": [],
      "payable": false,
      "stateMutability": "nonpayable",
      "type": "function"
    },
    {
      "constant": false,
      "inputs": [
        {
          "name": "_storageContract",
          "type": "address"
        },
        {
          "name": "_parentAddress",
          "type": "address"
        },
        {
          "name": "_address",
          "type": "address"
        },
        {
          "name": "_value",
          "type": "uint256"
        }
      ],
      "name": "setAllowance",
      "outputs": [],
      "payable": false,
      "stateMutability": "nonpayable",
      "type": "function"
    },
    {
      "constant": true,
      "inputs": [
        {
          "name": "_storageContract",
          "type": "address"
        },
        {
          "name": "_parentAddress",
          "type": "address"
        },
        {
          "name": "_address",
          "type": "address"
        }
      ],
      "name": "getAllowance",
      "outputs": [
        {
          "name": "",
          "type": "uint256"
        }
      ],
      "payable": false,
      "stateMutability": "view",
      "type": "function"
    },
    {
      "constant": false,
      "inputs": [
        {
          "name": "_storageContract",
          "type": "address"
        },
        {
          "name": "newFee",
          "type": "uint256"
        }
      ],
      "name": "setFee",
      "outputs": [],
      "payable": false,
      "stateMutability": "nonpayable",
      "type": "function"
    },
    {
      "constant": true,
      "inputs": [
        {
          "name": "_storageContract",
          "type": "address"
        }
      ],
      "name": "getFee",
      "outputs": [
        {
          "name": "",
          "type": "uint256"
        }
      ],
      "payable": false,
      "stateMutability": "view",
      "type": "function"
    },
    {
      "constant": true,
      "inputs": [
        {
          "name": "_storageContract",
          "type": "address"
        }
      ],
      "name": "getFeeAccount",
      "outputs": [
        {
          "name": "",
          "type": "address"
        }
      ],
      "payable": false,
      "stateMutability": "view",
      "type": "function"
    },
    {
      "constant": true,
      "inputs": [
        {
          "name": "_storageContract",
          "type": "address"
        }
      ],
      "name": "setFeeAccount",
      "outputs": [
        {
          "name": "",
          "type": "address"
        }
      ],
      "payable": false,
      "stateMutability": "view",
      "type": "function"
    },
    {
      "constant": false,
      "inputs": [
        {
          "name": "_storageContract",
          "type": "address"
        },
        {
          "name": "newFeeAccount",
          "type": "address"
        }
      ],
      "name": "setFeeAccount",
      "outputs": [],
      "payable": false,
      "stateMutability": "nonpayable",
      "type": "function"
    },
    {
      "constant": true,
      "inputs": [
        {
          "name": "_storageContract",
          "type": "address"
        }
      ],
      "name": "getMaxTransferNum",
      "outputs": [
        {
          "name": "",
          "type": "uint256"
        }
      ],
      "payable": false,
      "stateMutability": "view",
      "type": "function"
    },
    {
      "constant": false,
      "inputs": [
        {
          "name": "_storageContract",
          "type": "address"
        },
        {
          "name": "newMaxTransferNum",
          "type": "uint256"
        }
      ],
      "name": "setMaxTransferNum",
      "outputs": [],
      "payable": false,
      "stateMutability": "nonpayable",
      "type": "function"
    }
  ],
  "bytecode": "0x6128cc610030600b82828239805160001a6073146000811461002057610022565bfe5b5030600052607381538281f30073000000000000000000000000000000000000000030146080604052600436106100fd576000357c0100000000000000000000000000000000000000000000000000000000900463ffffffff1680630fc4b9db1461010257806315dacbea146101655780631c3b60ee146101f25780632cd334a3146102615780634b023cf8146102ae5780636bec32da146103245780636dbebbad14610391578063a7070373146103db578063b88c914814610468578063be24a8a0146104b2578063beabacc814610528578063c71cdcea14610595578063d4fac45d14610603578063e55156b51461066d578063e7092b41146106ba578063ec60bcf314610744575b600080fd5b81801561010e57600080fd5b50610163600480360381019080803573ffffffffffffffffffffffffffffffffffffffff169060200190929190803573ffffffffffffffffffffffffffffffffffffffff1690602001909291905050506107b1565b005b81801561017157600080fd5b506101f0600480360381019080803573ffffffffffffffffffffffffffffffffffffffff169060200190929190803573ffffffffffffffffffffffffffffffffffffffff169060200190929190803573ffffffffffffffffffffffffffffffffffffffff16906020019092919080359060200190929190505050610868565b005b8180156101fe57600080fd5b5061025f600480360381019080803573ffffffffffffffffffffffffffffffffffffffff169060200190929190803573ffffffffffffffffffffffffffffffffffffffff16906020019092919080351515906020019092919050505061087a565b005b81801561026d57600080fd5b506102ac600480360381019080803573ffffffffffffffffffffffffffffffffffffffff1690602001909291908035906020019092919050505061093e565b005b6102e2600480360381019080803573ffffffffffffffffffffffffffffffffffffffff1690602001909291905050506109c9565b604051808273ffffffffffffffffffffffffffffffffffffffff1673ffffffffffffffffffffffffffffffffffffffff16815260200191505060405180910390f35b81801561033057600080fd5b5061038f600480360381019080803573ffffffffffffffffffffffffffffffffffffffff169060200190929190803573ffffffffffffffffffffffffffffffffffffffff16906020019092919080359060200190929190505050610a71565b005b6103c5600480360381019080803573ffffffffffffffffffffffffffffffffffffffff169060200190929190505050610c08565b6040518082815260200191505060405180910390f35b8180156103e757600080fd5b50610466600480360381019080803573ffffffffffffffffffffffffffffffffffffffff169060200190929190803573ffffffffffffffffffffffffffffffffffffffff169060200190929190803573ffffffffffffffffffffffffffffffffffffffff16906020019092919080359060200190929190505050610cb0565b005b61049c600480360381019080803573ffffffffffffffffffffffffffffffffffffffff169060200190929190505050610da5565b6040518082815260200191505060405180910390f35b6104e6600480360381019080803573ffffffffffffffffffffffffffffffffffffffff169060200190929190505050610e4d565b604051808273ffffffffffffffffffffffffffffffffffffffff1673ffffffffffffffffffffffffffffffffffffffff16815260200191505060405180910390f35b81801561053457600080fd5b50610593600480360381019080803573ffffffffffffffffffffffffffffffffffffffff169060200190929190803573ffffffffffffffffffffffffffffffffffffffff16906020019092919080359060200190929190505050610ef5565b005b6105e9600480360381019080803573ffffffffffffffffffffffffffffffffffffffff169060200190929190803573ffffffffffffffffffffffffffffffffffffffff169060200190929190505050610f06565b604051808215151515815260200191505060405180910390f35b610657600480360381019080803573ffffffffffffffffffffffffffffffffffffffff169060200190929190803573ffffffffffffffffffffffffffffffffffffffff169060200190929190505050610fe6565b6040518082815260200191505060405180910390f35b81801561067957600080fd5b506106b8600480360381019080803573ffffffffffffffffffffffffffffffffffffffff169060200190929190803590602001909291905050506110c6565b005b61072e600480360381019080803573ffffffffffffffffffffffffffffffffffffffff169060200190929190803573ffffffffffffffffffffffffffffffffffffffff169060200190929190803573ffffffffffffffffffffffffffffffffffffffff169060200190929190505050611151565b6040518082815260200191505060405180910390f35b81801561075057600080fd5b506107af600480360381019080803573ffffffffffffffffffffffffffffffffffffffff169060200190929190803573ffffffffffffffffffffffffffffffffffffffff16906020019092919080359060200190929190505050611266565b005b8173ffffffffffffffffffffffffffffffffffffffff16634b023cf8826040518263ffffffff167c0100000000000000000000000000000000000000000000000000000000028152600401808273ffffffffffffffffffffffffffffffffffffffff1673ffffffffffffffffffffffffffffffffffffffff168152602001915050600060405180830381600087803b15801561084c57600080fd5b505af1158015610860573d6000803e3d6000fd5b505050505050565b610874848484846115fe565b50505050565b8273ffffffffffffffffffffffffffffffffffffffff166345b7d5da83836040518363ffffffff167c0100000000000000000000000000000000000000000000000000000000028152600401808373ffffffffffffffffffffffffffffffffffffffff1673ffffffffffffffffffffffffffffffffffffffff1681526020018215151515815260200192505050600060405180830381600087803b15801561092157600080fd5b505af1158015610935573d6000803e3d6000fd5b50505050505050565b8173ffffffffffffffffffffffffffffffffffffffff1663dbe8e82c826040518263ffffffff167c010000000000000000000000000000000000000000000000000000000002815260040180828152602001915050600060405180830381600087803b1580156109ad57600080fd5b505af11580156109c1573d6000803e3d6000fd5b505050505050565b60008173ffffffffffffffffffffffffffffffffffffffff16634614be9f6040518163ffffffff167c0100000000000000000000000000000000000000000000000000000000028152600401602060405180830381600087803b158015610a2f57600080fd5b505af1158015610a43573d6000803e3d6000fd5b505050506040513d6020811015610a5957600080fd5b81019080805190602001909291905050509050919050565b8273ffffffffffffffffffffffffffffffffffffffff1663e30443bc83838673ffffffffffffffffffffffffffffffffffffffff1663f8b2cb4f876040518263ffffffff167c0100000000000000000000000000000000000000000000000000000000028152600401808273ffffffffffffffffffffffffffffffffffffffff1673ffffffffffffffffffffffffffffffffffffffff168152602001915050602060405180830381600087803b158015610b2a57600080fd5b505af1158015610b3e573d6000803e3d6000fd5b505050506040513d6020811015610b5457600080fd5b8101908080519060200190929190505050016040518363ffffffff167c0100000000000000000000000000000000000000000000000000000000028152600401808373ffffffffffffffffffffffffffffffffffffffff1673ffffffffffffffffffffffffffffffffffffffff16815260200182815260200192505050600060405180830381600087803b158015610beb57600080fd5b505af1158015610bff573d6000803e3d6000fd5b50505050505050565b60008173ffffffffffffffffffffffffffffffffffffffff1663ad58ce1e6040518163ffffffff167c0100000000000000000000000000000000000000000000000000000000028152600401602060405180830381600087803b158015610c6e57600080fd5b505af1158015610c82573d6000803e3d6000fd5b505050506040513d6020811015610c9857600080fd5b81019080805190602001909291905050509050919050565b8373ffffffffffffffffffffffffffffffffffffffff1663da46098c8484846040518463ffffffff167c0100000000000000000000000000000000000000000000000000000000028152600401808473ffffffffffffffffffffffffffffffffffffffff1673ffffffffffffffffffffffffffffffffffffffff1681526020018373ffffffffffffffffffffffffffffffffffffffff1673ffffffffffffffffffffffffffffffffffffffff1681526020018281526020019350505050600060405180830381600087803b158015610d8757600080fd5b505af1158015610d9b573d6000803e3d6000fd5b5050505050505050565b60008173ffffffffffffffffffffffffffffffffffffffff1663ced72f876040518163ffffffff167c0100000000000000000000000000000000000000000000000000000000028152600401602060405180830381600087803b158015610e0b57600080fd5b505af1158015610e1f573d6000803e3d6000fd5b505050506040513d6020811015610e3557600080fd5b81019080805190602001909291905050509050919050565b60008173ffffffffffffffffffffffffffffffffffffffff16634614be9f6040518163ffffffff167c0100000000000000000000000000000000000000000000000000000000028152600401602060405180830381600087803b158015610eb357600080fd5b505af1158015610ec7573d6000803e3d6000fd5b505050506040513d6020811015610edd57600080fd5b81019080805190602001909291905050509050919050565b610f01833384846115fe565b505050565b60008273ffffffffffffffffffffffffffffffffffffffff1663c4977807836040518263ffffffff167c0100000000000000000000000000000000000000000000000000000000028152600401808273ffffffffffffffffffffffffffffffffffffffff1673ffffffffffffffffffffffffffffffffffffffff168152602001915050602060405180830381600087803b158015610fa357600080fd5b505af1158015610fb7573d6000803e3d6000fd5b505050506040513d6020811015610fcd57600080fd5b8101908080519060200190929190505050905092915050565b60008273ffffffffffffffffffffffffffffffffffffffff1663f8b2cb4f836040518263ffffffff167c0100000000000000000000000000000000000000000000000000000000028152600401808273ffffffffffffffffffffffffffffffffffffffff1673ffffffffffffffffffffffffffffffffffffffff168152602001915050602060405180830381600087803b15801561108357600080fd5b505af1158015611097573d6000803e3d6000fd5b505050506040513d60208110156110ad57600080fd5b8101908080519060200190929190505050905092915050565b8173ffffffffffffffffffffffffffffffffffffffff166369fe0e2d826040518263ffffffff167c010000000000000000000000000000000000000000000000000000000002815260040180828152602001915050600060405180830381600087803b15801561113557600080fd5b505af1158015611149573d6000803e3d6000fd5b505050505050565b60008373ffffffffffffffffffffffffffffffffffffffff16630af4187d84846040518363ffffffff167c0100000000000000000000000000000000000000000000000000000000028152600401808373ffffffffffffffffffffffffffffffffffffffff1673ffffffffffffffffffffffffffffffffffffffff1681526020018273ffffffffffffffffffffffffffffffffffffffff1673ffffffffffffffffffffffffffffffffffffffff16815260200192505050602060405180830381600087803b15801561122257600080fd5b505af1158015611236573d6000803e3d6000fd5b505050506040513d602081101561124c57600080fd5b810190808051906020019092919050505090509392505050565b60008084905060008473ffffffffffffffffffffffffffffffffffffffff161415151561129257600080fd5b828173ffffffffffffffffffffffffffffffffffffffff1663f8b2cb4f866040518263ffffffff167c0100000000000000000000000000000000000000000000000000000000028152600401808273ffffffffffffffffffffffffffffffffffffffff1673ffffffffffffffffffffffffffffffffffffffff168152602001915050602060405180830381600087803b15801561132e57600080fd5b505af1158015611342573d6000803e3d6000fd5b505050506040513d602081101561135857600080fd5b81019080805190602001909291905050501015151561137657600080fd5b8073ffffffffffffffffffffffffffffffffffffffff1663e30443bc85858473ffffffffffffffffffffffffffffffffffffffff1663f8b2cb4f896040518263ffffffff167c0100000000000000000000000000000000000000000000000000000000028152600401808273ffffffffffffffffffffffffffffffffffffffff1673ffffffffffffffffffffffffffffffffffffffff168152602001915050602060405180830381600087803b15801561142f57600080fd5b505af1158015611443573d6000803e3d6000fd5b505050506040513d602081101561145957600080fd5b8101908080519060200190929190505050036040518363ffffffff167c0100000000000000000000000000000000000000000000000000000000028152600401808373ffffffffffffffffffffffffffffffffffffffff1673ffffffffffffffffffffffffffffffffffffffff16815260200182815260200192505050600060405180830381600087803b1580156114f057600080fd5b505af1158015611504573d6000803e3d6000fd5b505050508073ffffffffffffffffffffffffffffffffffffffff166323de66518584866040518463ffffffff167c0100000000000000000000000000000000000000000000000000000000028152600401808473ffffffffffffffffffffffffffffffffffffffff1673ffffffffffffffffffffffffffffffffffffffff1681526020018373ffffffffffffffffffffffffffffffffffffffff1673ffffffffffffffffffffffffffffffffffffffff1681526020018281526020019350505050600060405180830381600087803b1580156115df57600080fd5b505af11580156115f3573d6000803e3d6000fd5b505050505050505050565b6000808591508173ffffffffffffffffffffffffffffffffffffffff1663ad58ce1e6040518163ffffffff167c0100000000000000000000000000000000000000000000000000000000028152600401602060405180830381600087803b15801561166857600080fd5b505af115801561167c573d6000803e3d6000fd5b505050506040513d602081101561169257600080fd5b810190808051906020019092919050505083111515156116b157600080fd5b8173ffffffffffffffffffffffffffffffffffffffff16630af4187d86336040518363ffffffff167c0100000000000000000000000000000000000000000000000000000000028152600401808373ffffffffffffffffffffffffffffffffffffffff1673ffffffffffffffffffffffffffffffffffffffff1681526020018273ffffffffffffffffffffffffffffffffffffffff1673ffffffffffffffffffffffffffffffffffffffff16815260200192505050602060405180830381600087803b15801561178057600080fd5b505af1158015611794573d6000803e3d6000fd5b505050506040513d60208110156117aa57600080fd5b810190808051906020019092919050505083111515156117c957600080fd5b8173ffffffffffffffffffffffffffffffffffffffff1663da46098c8633868673ffffffffffffffffffffffffffffffffffffffff16630af4187d8b336040518363ffffffff167c0100000000000000000000000000000000000000000000000000000000028152600401808373ffffffffffffffffffffffffffffffffffffffff1673ffffffffffffffffffffffffffffffffffffffff1681526020018273ffffffffffffffffffffffffffffffffffffffff1673ffffffffffffffffffffffffffffffffffffffff16815260200192505050602060405180830381600087803b1580156118b757600080fd5b505af11580156118cb573d6000803e3d6000fd5b505050506040513d60208110156118e157600080fd5b8101908080519060200190929190505050036040518463ffffffff167c0100000000000000000000000000000000000000000000000000000000028152600401808473ffffffffffffffffffffffffffffffffffffffff1673ffffffffffffffffffffffffffffffffffffffff1681526020018373ffffffffffffffffffffffffffffffffffffffff1673ffffffffffffffffffffffffffffffffffffffff1681526020018281526020019350505050600060405180830381600087803b1580156119ab57600080fd5b505af11580156119bf573d6000803e3d6000fd5b5050505060008473ffffffffffffffffffffffffffffffffffffffff16141515156119e957600080fd5b828273ffffffffffffffffffffffffffffffffffffffff1663f8b2cb4f876040518263ffffffff167c0100000000000000000000000000000000000000000000000000000000028152600401808273ffffffffffffffffffffffffffffffffffffffff1673ffffffffffffffffffffffffffffffffffffffff168152602001915050602060405180830381600087803b158015611a8557600080fd5b505af1158015611a99573d6000803e3d6000fd5b505050506040513d6020811015611aaf57600080fd5b810190808051906020019092919050505010151515611acd57600080fd5b8173ffffffffffffffffffffffffffffffffffffffff1663f8b2cb4f856040518263ffffffff167c0100000000000000000000000000000000000000000000000000000000028152600401808273ffffffffffffffffffffffffffffffffffffffff1673ffffffffffffffffffffffffffffffffffffffff168152602001915050602060405180830381600087803b158015611b6857600080fd5b505af1158015611b7c573d6000803e3d6000fd5b505050506040513d6020811015611b9257600080fd5b8101908080519060200190929190505050838373ffffffffffffffffffffffffffffffffffffffff1663f8b2cb4f876040518263ffffffff167c0100000000000000000000000000000000000000000000000000000000028152600401808273ffffffffffffffffffffffffffffffffffffffff1673ffffffffffffffffffffffffffffffffffffffff168152602001915050602060405180830381600087803b158015611c3f57600080fd5b505af1158015611c53573d6000803e3d6000fd5b505050506040513d6020811015611c6957600080fd5b810190808051906020019092919050505001111515611c8757600080fd5b8173ffffffffffffffffffffffffffffffffffffffff1663c4977807866040518263ffffffff167c0100000000000000000000000000000000000000000000000000000000028152600401808273ffffffffffffffffffffffffffffffffffffffff1673ffffffffffffffffffffffffffffffffffffffff168152602001915050602060405180830381600087803b158015611d2257600080fd5b505af1158015611d36573d6000803e3d6000fd5b505050506040513d6020811015611d4c57600080fd5b8101908080519060200190929190505050151515611d6957600080fd5b8173ffffffffffffffffffffffffffffffffffffffff1663c4977807856040518263ffffffff167c0100000000000000000000000000000000000000000000000000000000028152600401808273ffffffffffffffffffffffffffffffffffffffff1673ffffffffffffffffffffffffffffffffffffffff168152602001915050602060405180830381600087803b158015611e0457600080fd5b505af1158015611e18573d6000803e3d6000fd5b505050506040513d6020811015611e2e57600080fd5b8101908080519060200190929190505050151515611e4b57600080fd5b8173ffffffffffffffffffffffffffffffffffffffff1663ced72f876040518163ffffffff167c0100000000000000000000000000000000000000000000000000000000028152600401602060405180830381600087803b158015611eaf57600080fd5b505af1158015611ec3573d6000803e3d6000fd5b505050506040513d6020811015611ed957600080fd5b8101908080519060200190929190505050830390508173ffffffffffffffffffffffffffffffffffffffff1663e30443bc86858573ffffffffffffffffffffffffffffffffffffffff1663f8b2cb4f8a6040518263ffffffff167c0100000000000000000000000000000000000000000000000000000000028152600401808273ffffffffffffffffffffffffffffffffffffffff1673ffffffffffffffffffffffffffffffffffffffff168152602001915050602060405180830381600087803b158015611fa757600080fd5b505af1158015611fbb573d6000803e3d6000fd5b505050506040513d6020811015611fd157600080fd5b8101908080519060200190929190505050036040518363ffffffff167c0100000000000000000000000000000000000000000000000000000000028152600401808373ffffffffffffffffffffffffffffffffffffffff1673ffffffffffffffffffffffffffffffffffffffff16815260200182815260200192505050600060405180830381600087803b15801561206857600080fd5b505af115801561207c573d6000803e3d6000fd5b505050508173ffffffffffffffffffffffffffffffffffffffff1663e30443bc85838573ffffffffffffffffffffffffffffffffffffffff1663f8b2cb4f896040518263ffffffff167c0100000000000000000000000000000000000000000000000000000000028152600401808273ffffffffffffffffffffffffffffffffffffffff1673ffffffffffffffffffffffffffffffffffffffff168152602001915050602060405180830381600087803b15801561213957600080fd5b505af115801561214d573d6000803e3d6000fd5b505050506040513d602081101561216357600080fd5b8101908080519060200190929190505050016040518363ffffffff167c0100000000000000000000000000000000000000000000000000000000028152600401808373ffffffffffffffffffffffffffffffffffffffff1673ffffffffffffffffffffffffffffffffffffffff16815260200182815260200192505050600060405180830381600087803b1580156121fa57600080fd5b505af115801561220e573d6000803e3d6000fd5b505050508173ffffffffffffffffffffffffffffffffffffffff1663e30443bc8373ffffffffffffffffffffffffffffffffffffffff16634614be9f6040518163ffffffff167c0100000000000000000000000000000000000000000000000000000000028152600401602060405180830381600087803b15801561229257600080fd5b505af11580156122a6573d6000803e3d6000fd5b505050506040513d60208110156122bc57600080fd5b81019080805190602001909291905050508473ffffffffffffffffffffffffffffffffffffffff1663ced72f876040518163ffffffff167c0100000000000000000000000000000000000000000000000000000000028152600401602060405180830381600087803b15801561233157600080fd5b505af1158015612345573d6000803e3d6000fd5b505050506040513d602081101561235b57600080fd5b81019080805190602001909291905050508573ffffffffffffffffffffffffffffffffffffffff1663f8b2cb4f8773ffffffffffffffffffffffffffffffffffffffff16634614be9f6040518163ffffffff167c0100000000000000000000000000000000000000000000000000000000028152600401602060405180830381600087803b1580156123ec57600080fd5b505af1158015612400573d6000803e3d6000fd5b505050506040513d602081101561241657600080fd5b81019080805190602001909291905050506040518263ffffffff167c0100000000000000000000000000000000000000000000000000000000028152600401808273ffffffffffffffffffffffffffffffffffffffff1673ffffffffffffffffffffffffffffffffffffffff168152602001915050602060405180830381600087803b1580156124a557600080fd5b505af11580156124b9573d6000803e3d6000fd5b505050506040513d60208110156124cf57600080fd5b8101908080519060200190929190505050016040518363ffffffff167c0100000000000000000000000000000000000000000000000000000000028152600401808373ffffffffffffffffffffffffffffffffffffffff1673ffffffffffffffffffffffffffffffffffffffff16815260200182815260200192505050600060405180830381600087803b15801561256657600080fd5b505af115801561257a573d6000803e3d6000fd5b505050508173ffffffffffffffffffffffffffffffffffffffff166323de66513386846040518463ffffffff167c0100000000000000000000000000000000000000000000000000000000028152600401808473ffffffffffffffffffffffffffffffffffffffff1673ffffffffffffffffffffffffffffffffffffffff1681526020018373ffffffffffffffffffffffffffffffffffffffff1673ffffffffffffffffffffffffffffffffffffffff1681526020018281526020019350505050600060405180830381600087803b15801561265557600080fd5b505af1158015612669573d6000803e3d6000fd5b505050508173ffffffffffffffffffffffffffffffffffffffff166323de6651338473ffffffffffffffffffffffffffffffffffffffff16634614be9f6040518163ffffffff167c0100000000000000000000000000000000000000000000000000000000028152600401602060405180830381600087803b1580156126ee57600080fd5b505af1158015612702573d6000803e3d6000fd5b505050506040513d602081101561271857600080fd5b81019080805190602001909291905050508573ffffffffffffffffffffffffffffffffffffffff1663ced72f876040518163ffffffff167c0100000000000000000000000000000000000000000000000000000000028152600401602060405180830381600087803b15801561278d57600080fd5b505af11580156127a1573d6000803e3d6000fd5b505050506040513d60208110156127b757600080fd5b81019080805190602001909291905050506040518463ffffffff167c0100000000000000000000000000000000000000000000000000000000028152600401808473ffffffffffffffffffffffffffffffffffffffff1673ffffffffffffffffffffffffffffffffffffffff1681526020018373ffffffffffffffffffffffffffffffffffffffff1673ffffffffffffffffffffffffffffffffffffffff1681526020018281526020019350505050600060405180830381600087803b15801561288057600080fd5b505af1158015612894573d6000803e3d6000fd5b505050505050505050505600a165627a7a723058206d9f1488320f870e133042c7887d381ad310a0f3510fedba475af3f953ff4a940029",
  "source": "pragma solidity ^0.4.17;\n\nimport \"./TokenERC20Storage.sol\";\n\nlibrary Erc20Library {\n\n  function getBalance(address _storageContract, address _address) public view returns(uint256) {\n    return TokenERC20Storage(_storageContract).getBalance(_address);\n  }\n\n  function _transfer(address _storageContract, address _from, address _to, uint256 _value) private {\n    TokenERC20Storage data = TokenERC20Storage(_storageContract);\n    require(_value <= data.getMaxTransferNum());\n    require(_value <= data.getAllowance(_from, msg.sender));\n    data.setAllowance(_from, msg.sender, (data.getAllowance(_from, msg.sender) - _value));\n    require(_to != 0x0);\n    require(data.getBalance(_from) >= _value);\n    require(data.getBalance(_to) + _value > data.getBalance(_to));\n    require(!data.getFrozenAccount(_from));\n    require(!data.getFrozenAccount(_to));\n\n    uint taxedValue = _value - data.getFee();\n    data.setBalance(_from, (data.getBalance(_from) - _value));\n    data.setBalance(_to, (data.getBalance(_to) + taxedValue));\n    data.setBalance(\n    data.getFeeAccount(),\n    data.getBalance(data.getFeeAccount()) + data.getFee());\n\n    data.emitTransfer(msg.sender, _to, taxedValue);\n    data.emitTransfer(msg.sender,\n      data.getFeeAccount(),\n      data.getFee()\n    );\n  }\n\n  function transferFrom(address _storageContract, address _from, address _to, uint256 _value) public {\n    _transfer(_storageContract, _from, _to, _value);\n  }\n\n  function transfer(address _storageContract, address _to, uint256 _value) public {\n    _transfer(_storageContract, msg.sender, _to, _value);\n  }\n\n  function mintToken(address _storageContract, address _to, uint256 _value) public {\n    TokenERC20Storage(_storageContract).setBalance(_to, (TokenERC20Storage(_storageContract).getBalance(_to) + _value));\n  }\n\n  function setFrozenAccount(address _storageContract, address _to, bool freeze) public {\n    TokenERC20Storage(_storageContract).setFrozenAccount(_to, freeze);\n  }\n\n  function getFrozenAccount(address _storageContract, address _to) public view returns (bool) {\n    return TokenERC20Storage(_storageContract).getFrozenAccount(_to);\n  }\n\n  function burnFrom(address _storageContract, address _from, uint256 _value) public {\n    address burnAddress;\n    TokenERC20Storage data = TokenERC20Storage(_storageContract);\n    require(_from != 0x0);\n    require(data.getBalance(_from) >= _value);\n    data.setBalance(_from, (data.getBalance(_from) - _value));\n    data.emitTransfer(_from, burnAddress, _value);\n  }\n\n  function setAllowance(address _storageContract, address _parentAddress, address _address, uint256 _value) public {\n    TokenERC20Storage(_storageContract).setAllowance(_parentAddress, _address, _value);\n  }\n\n  function getAllowance(address _storageContract, address _parentAddress, address _address) public view returns (uint256) {\n    return TokenERC20Storage(_storageContract).getAllowance(_parentAddress, _address);\n  }\n\n  function setFee(address _storageContract, uint256 newFee) public {\n    TokenERC20Storage(_storageContract).setFee(newFee);\n  }\n\n  function getFee(address _storageContract) public view returns (uint256) {\n    return TokenERC20Storage(_storageContract).getFee();\n  }\n\n  function setFeeAccount(address _storageContract, address newFeeAccount) public {\n    TokenERC20Storage(_storageContract).setFeeAccount(newFeeAccount);\n  }\n\n  function getFeeAccount(address _storageContract) public view returns (address) {\n    return TokenERC20Storage(_storageContract).getFeeAccount();\n  }\n\n  function setFeeAccount(address _storageContract) public view returns (address) {\n    return TokenERC20Storage(_storageContract).getFeeAccount();\n  }\n\n  function getMaxTransferNum(address _storageContract) public view returns (uint256) {\n    return TokenERC20Storage(_storageContract).getMaxTransferNum();\n  }\n\n  function setMaxTransferNum(address _storageContract, uint256 newMaxTransferNum) public {\n    TokenERC20Storage(_storageContract).setMaxTransferNum(newMaxTransferNum);\n  }\n\n}\n",
  "sourcePath": "/Users/zxf/Documents/workspace_blockchain/erc20/contracts/Erc20Library.sol",
  "compiler": {
    "name": "solc",
    "version": "0.4.23+commit.124ca40d.Emscripten.clang"
  },
  "schemaVersion": "2.0.0",
  "updatedAt": "2018-06-09T13:16:49.007Z"
}